:10FC00005542200135D0085A82451A0231408002FF
:10FC10003F4002000F93082492421A0220012F83D2
:10FC20009F4FDEFF0002F8233F4018000F93072488
:10FC300092421A0220011F83CF430202F923B240ED
:10FC4000E05A2001F2D0100000005F42FF107F93C5
:10FC500004245F42FE107F930720F2400700570004
:10FC6000F24060005600063CD242FF105700D242DC
:10FC7000FE105600F2D0200053005F422600C2431F
:10FC800026005F422200F2432200F2F03F002E00E5
:10FC9000F2D0C0FF2A00C2432900B2401000620126
:10FCA000B2408F3A7201B240D0016001F24061006F
:10FCB000BF00B24020010001B2400814020132D25C
:10FCC0003B401100C29300020A24C24300021B53AE
:10FCD0007F400600B0123EFED2431002673C3B90CC
:10FCE000130008287F400500B0123EFED2431602E2
:10FCF0000B435C3CC29318020924C24318027F40A4
:10FD00000500B0123EFED2431402503CC2931602CC
:10FD10001124C2930A020E24C2431602C2430A02ED
:10FD20001E4204025F433E90555501284F43C24F87
:10FD300006023C3CC29314021424C2930A0211240A
:10FD4000C2431402C2430A021F4204023E40E803B7
:10FD5000B01276FFB012C4FE3E400A00B01226FF79
:10FD6000253CC29310022224C29308021F24C243DE
:10FD70001002C2430802C29306020A243E400A004F
:10FD80003F401C3EB01226FF3F400A00B012FEFE6C
:10FD90001F4202023E4090003F50A864B01298FFFC
:10FDA000B01262FE3E400A00B01226FF32D0D000F0
:10FDB000893F32D0F000FD3F3040D2FF82437401D2
:10FDC000D2430002B1C0D000000000130F121F4246
:10FDD0002E012F930620B2F0EFFF6401B1C0D000D6
:10FDE00002003F4100130F12B2F0FBFF0001C2936B
:10FDF0000C020824924212010202C2430C02D243B6
:10FE000008020A3CC2930E02072492421201040225
:10FE1000C2430E02D2430A02B1C0D00002003F41E9
:10FE200000130F12D2431802F2F0EFFF0200F2D0DB
:10FE300010000000B1C0D00002003F410013A2D268
:10FE40000001C24FB000A2D302017F900500032041
:10FE5000D2430E0230417F9006000220D2430C02B2
:10FE600030410B120A123F9064001C343F90EDFFAA
:10FE70001E380A4F0F9304343AE31A536B43013C84
:10FE80004B433E400A000F4AB01298FF0F930224E2
:10FE90005B5FD4FF3E400A000F4AB012CAFF5F4FBB
:10FEA000D4FF093C7F4020007B406E00043C7F4033
:10FEB0003A007B401C004F4F8F104B4B0FDB3A41F9
:10FEC0003B4130410B120A120912094F3E400A0011
:10FED000B01290FF3A40D4FF0E4A0E5F6B4E3E4088
:10FEE0000A000F49B01276FF0F5A6E4F5E530F4B48
:10FEF0008F104E4E0FDE39413A413B4130411E4298
:10FF000070010E5F824E74011F4274011E42720125
:10FF10000E9F032C928272017401B24010006401A2
:10FF200032D0D00030410B120A1209120812094FC8
:10FF3000084E3B4014000A4F8A104A4AC249210029
:10FF4000F240400029000F48B012FEFEC2432900D3
:10FF5000C24A2100F24080FF29000F48B012FEFE85
:10FF6000C24329003B53EA23C243210038413941AF
:10FF70003A413B4130417C4010000D4E0E430F5F33
:10FF80000E6E0E9D02280E8D1FD31C83F823304168
:10FF9000B01276FF0F4E30410D430F9304343D40B5
:10FFA00003003FE31F530E9303345DE33EE31E5310
:10FFB0000D12B01276FF3D416DB302243EE31E5395
:10FFC0005DB302243FE31F533041B01298FF0F4E40
:04FFD00030410013A9
:0AFFD400FC60DAF266B6BEE0FEF64D
:02FFDE00010020
:10FFE000B8FDB8FDB8FDB8FDB8FDE6FDB8FDB8FD3B
:10FFF000CCFDBCFDB8FDB8FDB8FDB8FD22FE00FC8F
:040000030000FC00FD
:00000001FF
