:10FC00005542200135D0085A82451A0231408002FF
:10FC10003F4002000F93082492421A0220012F83D2
:10FC20009F4FD2FF0002F8233F4018000F93072494
:10FC300092421A0220011F83CF430202F923B240ED
:10FC4000805A2001B01224FEB01206FEB01256FEF9
:10FC500082437401B01280FE32D25F4202025F53CF
:10FC6000C24F02027F900D0008287F400500B012AD
:10FC700094FEC243020232D0D000C2930A023B2457
:10FC8000C2430A021E4216021F421802B012B8FEF8
:10FC90003C4064000D43B0127CFF3C400A000D4321
:10FCA000B012B2FFC24E04021E4216021F421802D8
:10FCB000B012B8FE3C400A000D43B0127CFF3C403D
:10FCC0000A000D43B012B2FFC24E06027B400A008A
:10FCD0005E4206025F420402521200023C400500EE
:10FCE0003D400500B0121EFF21537B53F1233F40DE
:10FCF000E803B0126AFE7F400600B01294FE32D0D4
:10FD0000D000C29308022E24C24308021E421202EF
:10FD10001F421402B01202FF3C400A000D43B01211
:10FD20007CFFC24E04021E4212021F421402B01295
:10FD300002FF3C400A000D43B012B2FFC24E060261
:10FD40007B400A005E4206025F4204025212100229
:10FD50003C4005003D400500B0121EFF21537B537F
:10FD6000F1230A3CD242CFFF2100F240400029009B
:10FD70003F40EE02B0126AFE32D0D0006E3F32D069
:10FD8000F000FD3F3040BCFF82437401B1C0D000A1
:10FD9000000000130F121F422E012F930620B2F015
:10FDA000EFFF6401B1C0D00002003F4100130F1209
:10FDB0000E120D12B2F0FBFF0001C2930E020D24D1
:10FDC0001D4212010E4D0F43824E1602824F180241
:10FDD000C2430E02D2430A020F3CC2930C020C240F
:10FDE0001D4212010E4D0F43824E1202824F140229
:10FDF000C2430C02D2430802B1C0D00006003D410C
:10FE00003E413F4100135F422600C24326005F424D
:10FE10002200F2432200F2F03F002E00F2D0C0FF99
:10FE20002A0030415F42FF107F9304245F42FE109E
:10FE30007F930720F24007005700F2406000560011
:10FE4000063CD242FF105700D242FE105600F2D0BC
:10FE5000200053003041B24010006201B2408F3A9E
:10FE60007201B240D001600130411E4270010E5F4C
:10FE7000824E7401B2401000640132D0D000304193
:10FE8000F2406100BF00B24024010001B2400814FA
:10FE900002013041A2D20001C24FB000A2D3020140
:10FEA0007F9005000320D2430E0230417F90060070
:10FEB0000220D2430C0230410B120A120E5E0F6F69
:10FEC0000C4E0D4F0C5C0D6D0C5C0D6D0E5C0F6DD2
:10FED0000A4E0B4F7D4005000A5A0B6B7D53FC23E5
:10FEE0000E5A0F6B8E108F104EEF0EEF4F4F7D405E
:10FEF000070012C30F100E107D53FB233A413B4104
:10FF000030413C4090000D433E50EC643F63B012E2
:10FF10007CFF3041C2432100C243290030410B1213
:10FF20000A1209120812484E094D0A4C4B4F5F4BFA
:10FF3000BEFFC1930A0001245F53C24F2100F2406B
:10FF4000400029000F49B0126AFEB01214FF0F4A98
:10FF5000B0126AFE4E48D24EBEFF2100F24080FF32
:10FF600029000F49B0126AFEB01214FF0F4AB012F6
:10FF70006AFE384139413A413B4130410B120A1285
:10FF80000912794020000A4C0B4D0C430D430E5EC4
:10FF90000F6F0C6C0D6D0D9B062802200C9A032828
:10FFA0000C8A0D7B1ED31983F22339413A413B4120
:0EFFB0003041B0127CFF0E4C0F4D304100135B
:10FFBE00FC60DAF266B6BEE0FEF601006E201C3A78
:04FFCE003E9E0A0049
:02FFD20001002C
:10FFE00084FD84FD84FD84FD84FDAEFD84FD84FDDF
:10FFF00094FD88FD84FD84FD84FD84FD84FD00FC6A
:040000030000FC00FD
:00000001FF
