:10FC00005542200135D0085A824510023140800209
:10FC10003F4002000F9308249242100220012F83DC
:10FC20009F4FDCFF0002F8233F400E000F93072494
:10FC30009242100220011F83CF430202F923B240F7
:10FC4000E05A2001F2D0100000005F42FF107F93C5
:10FC500004245F42FE107F930720F2400700570004
:10FC6000F24060005600063CD242FF105700D242DC
:10FC7000FE105600F2D020005300C2432600F2438B
:10FC80002200C2432E00F2432A00C2432900B240A0
:10FC900010006201B2408F3A7201B240D00160019F
:10FCA000F2406100BF00B24020010001B2400814E0
:10FCB000020132D23B401100C29300020A24C24327
:10FCC00000021B537F400600B0123CFED2430C02E0
:10FCD000673C3B90130008287F400500B0123CFEB3
:10FCE000D2430B020B435C3CC2930F020924C24374
:10FCF0000F027F400500B0123CFED2430E02503C82
:10FD0000C2930B021124C29306020E24C2430B02BB
:10FD1000C24306021E4204025F433E90555501282D
:10FD20004F43C24F09023C3CC2930E021424C293BB
:10FD300006021124C2430E02C24306021F420402FD
:10FD40003E40E803B01274FFB012C2FE3E400A000B
:10FD5000B01224FF253CC2930C022224C2930A0253
:10FD60001F24C2430C02C2430A02C29309020A249E
:10FD70003E400A003F401C3EB01224FF3F400A00B4
:10FD8000B012FCFE1F4202023E4090003F50A864A9
:10FD9000B01296FFB01260FE3E400A00B01224FF7F
:10FDA00032D0D000893F32D0F000FD3F3040D0FF4C
:10FDB00082437401D2430002B1C0D000000000139E
:10FDC0000F121F422E012F930620B2F0EFFF6401A5
:10FDD000B1C0D00002003F4100130F12B2F0FBFF90
:10FDE0000001C29308020824924212010202C24397
:10FDF0000802D2430A020A3CC29307020724924235
:10FE000012010402C2430702D2430602B1C0D0006D
:10FE100002003F4100130F125F4202003FF010004A
:10FE20000B24D2430F02F2F0EFFF0200F2D01000D9
:10FE30000000B1C0D00002003F410013A2D2000177
:10FE4000C24FB000A2D302017F9005000320D2432D
:10FE5000070230417F9006000220D2430802304161
:10FE60000B120A123F9064001C343F90EDFF1E38C5
:10FE70000A4F0F9304343AE31A536B43013C4B434C
:10FE80003E400A000F4AB01296FF0F9302245B5FB8
:10FE9000D2FF3E400A000F4AB012C8FF5F4FD2FFA8
:10FEA000093C7F4020007B406E00043C7F403A00CC
:10FEB0007B401C004F4F8F104B4B0FDB3A413B41B7
:10FEC00030410B120A120912094F3E400A00B012CB
:10FED0008EFF3A40D2FF0E4A0E5F6B4E3E400A0044
:10FEE0000F49B01274FF0F5A6E4F5E530F4B8F10B5
:10FEF0004E4E0FDE39413A413B4130411E427001C6
:10FF00000E5F824E74011F4274011E4272010E9FE9
:10FF1000032C928272017401B2401000640132D04D
:10FF2000D00030410B120A1209120812094F084E74
:10FF30003B4014000A4F8A104A4AC2492100F2404D
:10FF4000400029000F48B012FCFEC2432900C24AFB
:10FF50002100F24080FF29000F48B012FCFEC2438E
:10FF600029003B53EA23C2432100384139413A4139
:10FF70003B4130417C4010000D4E0E430F5F0E6E32
:10FF80000E9D02280E8D1FD31C83F8233041B01222
:10FF900074FF0F4E30410D430F9304343D40030076
:10FFA0003FE31F530E9303345DE33EE31E530D12F4
:10FFB000B01274FF3D416DB302243EE31E535DB3A6
:10FFC00002243FE31F533041B01296FF0F4E3041E1
:02FFD00000131C
:0AFFD200FC60DAF266B6BEE0FEF64F
:02FFDC00010022
:10FFE000ACFDACFDACFDACFDACFDDAFDACFDACFD9B
:10FFF000C0FDB0FDACFDACFDACFDACFD16FE00FCE3
:040000030000FC00FD
:00000001FF
