:10FC00005542200135D0085A82450E02314080020B
:10FC10003F4000000F93082492420E0220012F83E0
:10FC20009F4F44FF0002F8233F400E000F9307242C
:10FC300092420E0220011F83CF430002F923B240FB
:10FC4000805A2001B01262FDB01244FDB01294FD42
:10FC5000B012ACFD32D23B400C001B533B900D0068
:10FC600007207F400500B012C0FD32D0D0000B430A
:10FC7000C29304020C24C24304021F420C023F90B0
:10FC80005D74032CD2430002023CC2430002C293C3
:10FC900000020A243E400A003F401C3EB0128CFE87
:10FCA0003F400A00B01264FE7F400600B012C0FD63
:10FCB00032D0D000C29302020C24C24302021F427F
:10FCC0000A02B012E4FDB012F2FD3E400A00B0128A
:10FCD0008CFE32D0D000C13F32D0F000FD3F30402A
:10FCE00038FF82437401B1C0D000000000130F122E
:10FCF0001F422E012F930620B2F0EFFF6401B1C026
:10FD0000D00002003F4100130F12B2F0FBFF0001D0
:10FD1000C29306020824924212010A02C24306025A
:10FD2000D24302020A3CC293080207249242120103
:10FD30000C02C2430802D2430402B1C0D000020048
:10FD40003F4100135F422600C24326005F4222006B
:10FD5000F2432200F2F03F002E00F2D0C0FF2A0052
:10FD600030415F42FF107F9304245F42FE107F9377
:10FD70000720F24007005700F24060005600063CA2
:10FD8000D242FF105700D242FE105600F2D020009F
:10FD900053003041B24010006201B2408F3A72010C
:10FDA00082437401B240D00160013041F2406100F1
:10FDB000BF00B24020010001B240081402013041EE
:10FDC000A2D20001C24FB000A2D302017F90050071
:10FDD0000320D243080230417F9006000220D24324
:10FDE000060230413E4090003F50A864B012DCFE55
:10FDF00030410B120A1209120B4F3F90640021345C
:10FE00003F90EDFF23380F9304343BE31B536A43C9
:10FE1000013C4A433E400A000F4BB012DCFE494F02
:10FE20003E400A000F4BB0120EFF499305244E4985
:10FE30004D4A5D5E3AFF013C4D4A4F4F5E4F3AFFDF
:10FE4000093C7E4020007D406E00043C7E403A002C
:10FE50007D401C004E4E8E104F4D0FDE39413A4111
:10FE60003B4130411E4270010E5F824E74011F42C1
:10FE700074011E4272010E9F032C92827201740162
:10FE8000B2401000640132D0D00030410B120A128F
:10FE900009120812094F084E3B400A000A4F8A1007
:10FEA0004A4AC2492100F240400029000F48B012DE
:10FEB00064FEC2432900C24A2100F24080FF2900AB
:10FEC0000F48B01264FEC24329003B53EA23C243E9
:10FED0002100384139413A413B4130410D430F93B4
:10FEE00004343D4003003FE31F530E9303345DE3AE
:10FEF0003EE31E530D12B01216FF3D416DB30224B6
:10FF00003EE31E535DB302243FE31F533041B01262
:10FF1000DCFE0F4E30417C4010000D4E0E430F5F53
:10FF20000E6E0E9D02280E8D1FD31C83F8233041C8
:0AFF3000B01216FF0F4E304100130F
:0AFF3A00FC60DAF266B6BEE0FEF6E7
:10FFE000DEFCDEFCDEFCDEFCDEFC08FDDEFCDEFC16
:10FFF000EEFCE2FCDEFCDEFCDEFCDEFCDEFC00FCFB
:040000030000FC00FD
:00000001FF
