:10FC00005542200135D0085A824510023140800209
:10FC10003F4000000F9308249242100220012F83DE
:10FC20009F4FE0FF0002F8233F4010000F9307248E
:10FC30009242100220011F83CF430002F923B240F9
:10FC4000E05A2001F2D010000000B012B8FDB0124E
:10FC50009AFDB012EAFDB01202FE32D23B400C0017
:10FC60001B533B900D0007207F400500B01216FE8D
:10FC700032D0D0000B43C29306020C24C2430602CA
:10FC80001F420E023F905D74032CD2430202023CDD
:10FC9000C2430202C29302020A243E400A003F40CD
:10FCA0001C3EB01228FF3F400A00B01200FFC29372
:10FCB00000021724C24300027F400500B01216FE66
:10FCC00032D0D000C29306020C24C24306021F4267
:10FCD0000E02B0123AFEB012C4FE3E400A00B0124C
:10FCE00028FF7F400600B01216FE32D0D000C2932B
:10FCF00004020C24C24304021F420C02B01244FE50
:10FD0000B01252FE3E400A00B01228FF32D0D0009E
:10FD1000A73F32D0F000FD3F3040D4FF8243740152
:10FD2000B1C0D000000000130F121F422E012F930C
:10FD30000620B2F0EFFF6401B1C0D00002003F41E5
:10FD400000130F12B2F0FBFF0001C2930802082457
:10FD5000924212010C02C2430802D24304020A3C3E
:10FD6000C2930A020724924212010E02C2430A02FF
:10FD7000D2430602B1C0D00002003F4100130F126F
:10FD8000D2430002F2F0EFFF0200F2D010000000B8
:10FD9000B1C0D00002003F4100135F422600C243C1
:10FDA00026005F422200F2432200F2F03F002E00C4
:10FDB000F2D0C0FF2A0030415F42FF107F9304243D
:10FDC0005F42FE107F930720F24007005700F24089
:10FDD00060005600063CD242FF105700D242FE108F
:10FDE0005600F2D0200053003041B24010006201B2
:10FDF000B2408F3A720182437401B240D001600177
:10FE00003041F2406100BF00B24020010001B24029
:10FE1000081402013041A2D20001C24FB000A2D3A7
:10FE200002017F9005000320D2430A0230417F90F7
:10FE300006000220D243080230413E40E803B012DF
:10FE400078FF30413E4090003F50A864B0129AFFC6
:10FE500030410B120A1209123F90640022343F9085
:10FE6000EDFF24380B4F0F9304343BE31B536A43DD
:10FE7000013C4A433E400A000F4BB0129AFF494FE3
:10FE80003E400A000F4BB012CCFF499305244E4967
:10FE90004D4A5D5ED6FF013C4D4A4F4F5E4FD6FF47
:10FEA000093C7E4020007D406E00043C7E403A00CC
:10FEB0007D401C004E4E8E104F4D0FDE39413A41B1
:10FEC0003B4130410B120A120912094F3E400A0011
:10FED000B01292FF4E4F3A40D6FF0E5A6B4E3E4044
:10FEE0000A000F49B01278FF4F4F0F5A6E4F5E5302
:10FEF0000F4B8F104E4E0FDE39413A413B4130419E
:10FF00001E4270010E5F824E74011F4274011E4238
:10FF100072010E9F032C928272017401B240100094
:10FF2000640132D0D00030410B120A1209120812BB
:10FF3000094F084E3B4014000A4F8A104A4AC249F2
:10FF40002100F240400029000F48B01200FFC243D8
:10FF50002900C24A2100F24080FF29000F48B01258
:10FF600000FFC24329003B53EA23C243210038412A
:10FF700039413A413B4130417C4010000D4E0E4327
:10FF80000F5F0E6E0E9D02280E8D1FD31C83F8236B
:10FF90003041B01278FF0F4E30410D430F930434BF
:10FFA0003D4003003FE31F530E9303345DE33EE304
:10FFB0001E530D12B01278FF3D416DB302243EE393
:10FFC0001E535DB302243FE31F533041B0129AFF2A
:06FFD0000F4E304100134A
:0AFFD600FC60DAF266B6BEE0FEF64B
:10FFE00018FD18FD18FD18FD18FD42FD18FD18FD3F
:10FFF00028FD1CFD18FD18FD18FD18FD7EFD00FCF8
:040000030000FC00FD
:00000001FF
