:10FC00005542200135D0085A824510023140800209
:10FC10003F4000000F9308249242100220012F83DE
:10FC20009F4FE0FF0002F8233F4010000F9307248E
:10FC30009242100220011F83CF430002F923B240F9
:10FC4000E05A2001F2D0100000005F42FF107F93C5
:10FC500004245F42FE107F930720F2400700570004
:10FC6000F24060005600063CD242FF105700D242DC
:10FC7000FE105600F2D0200053005F422600C2431F
:10FC800026005F422200F2432200F2F03F002E00E5
:10FC9000F2D0C0FF2A00B24010006201B2408F3A99
:10FCA0007201B240D0016001F2406100BF00B24079
:10FCB00020010001B2400814020132D23B400C0086
:10FCC000C29304020A24C24304021B537F4006006D
:10FCD000B0123AFED2430502673C3B900D00082863
:10FCE0007F400500B0123AFED24300020B435C3C59
:10FCF000C2930F020924C2430F027F400500B012D5
:10FD00003AFED2430D02503CC29300021124C2932A
:10FD100001020E24C2430002C24301021E420A0233
:10FD20005F433E90A46A01284F43C24F0C023C3C03
:10FD3000C2930D021424C29301021124C2430D0286
:10FD4000C24301021F420A023E40E803B01278FF9C
:10FD5000B012C4FE3E400A00B01228FF253CC293F8
:10FD600005022224C2930E021F24C2430502C2438D
:10FD70000E02C2930C020A243E400A003F401C3E81
:10FD8000B01228FF3F400A00B01200FF1F420802D5
:10FD90003E4090003F50A864B0129AFFB0125EFE41
:10FDA0003E400A00B01228FF32D0D000893F32D046
:10FDB000F000FD3F3040D4FF82437401D24304027F
:10FDC000B1C0D000000000130F121F422E012F936C
:10FDD0000620B2F0EFFF6401B1C0D00002003F4145
:10FDE00000130F12B2F0FBFF0001C29303020824BC
:10FDF000924212010802C2430302D2430E020A3C9D
:10FE0000C29302020724924212010A02C243020272
:10FE1000D2430102B1C0D00002003F4100130F12D3
:10FE2000D2430F02F2F0EFFF0200F2D01000000008
:10FE3000B1C0D00002003F410013A2D20001C24F66
:10FE4000B000A2D302017F9005000320D24302023A
:10FE500030417F9006000220D243030230410B1252
:10FE60000A123F9064001E343F90EDFF20380A4F85
:10FE70000F9304343AE31A536B43013C4B433E4027
:10FE80000A000F4AB0129AFF4F9303244F4F5B5F53
:10FE9000D6FF3E400A000F4AB012CCFF4F4F5F4FD3
:10FEA000D6FF093C7F4020007B406E00043C7F4031
:10FEB0003A007B401C004F4F8F104B4B0FDB3A41F9
:10FEC0003B4130410B120A120912094F3E400A0011
:10FED000B01292FF4E4F3A40D6FF0E5A6B4E3E4044
:10FEE0000A000F49B01278FF4F4F0F5A6E4F5E5302
:10FEF0000F4B8F104E4E0FDE39413A413B4130419E
:10FF00001E4270010E5F824E74011F4274011E4238
:10FF100072010E9F032C928272017401B240100094
:10FF2000640132D0D00030410B120A1209120812BB
:10FF3000094F084E3B4014000A4F8A104A4AC249F2
:10FF40002100F240400029000F48B01200FFC243D8
:10FF50002900C24A2100F24080FF29000F48B01258
:10FF600000FFC24329003B53EA23C243210038412A
:10FF700039413A413B4130417C4010000D4E0E4327
:10FF80000F5F0E6E0E9D02280E8D1FD31C83F8236B
:10FF90003041B01278FF0F4E30410D430F930434BF
:10FFA0003D4003003FE31F530E9303345DE33EE304
:10FFB0001E530D12B01278FF3D416DB302243EE393
:10FFC0001E535DB302243FE31F533041B0129AFF2A
:06FFD0000F4E304100134A
:0AFFD600FC60DAF266B6BEE0FEF64B
:10FFE000B4FDB4FDB4FDB4FDB4FDE2FDB4FDB4FD5B
:10FFF000C8FDB8FDB4FDB4FDB4FDB4FD1EFE00FCAB
:040000030000FC00FD
:00000001FF
